{
  "_format": "hh-sol-artifact-1",
  "contractName": "DOOD",
  "sourceName": "contracts/socialweb3token.sol",
  "abi": [
    {
      "inputs": [],
      "stateMutability": "nonpayable",
      "type": "constructor"
    },
    {
      "inputs": [
        {
          "internalType": "address",
          "name": "spender",
          "type": "address"
        },
        {
          "internalType": "uint256",
          "name": "allowance",
          "type": "uint256"
        },
        {
          "internalType": "uint256",
          "name": "needed",
          "type": "uint256"
        }
      ],
      "name": "ERC20InsufficientAllowance",
      "type": "error"
    },
    {
      "inputs": [
        {
          "internalType": "address",
          "name": "sender",
          "type": "address"
        },
        {
          "internalType": "uint256",
          "name": "balance",
          "type": "uint256"
        },
        {
          "internalType": "uint256",
          "name": "needed",
          "type": "uint256"
        }
      ],
      "name": "ERC20InsufficientBalance",
      "type": "error"
    },
    {
      "inputs": [
        {
          "internalType": "address",
          "name": "approver",
          "type": "address"
        }
      ],
      "name": "ERC20InvalidApprover",
      "type": "error"
    },
    {
      "inputs": [
        {
          "internalType": "address",
          "name": "receiver",
          "type": "address"
        }
      ],
      "name": "ERC20InvalidReceiver",
      "type": "error"
    },
    {
      "inputs": [
        {
          "internalType": "address",
          "name": "sender",
          "type": "address"
        }
      ],
      "name": "ERC20InvalidSender",
      "type": "error"
    },
    {
      "inputs": [
        {
          "internalType": "address",
          "name": "spender",
          "type": "address"
        }
      ],
      "name": "ERC20InvalidSpender",
      "type": "error"
    },
    {
      "anonymous": false,
      "inputs": [
        {
          "indexed": true,
          "internalType": "address",
          "name": "owner",
          "type": "address"
        },
        {
          "indexed": true,
          "internalType": "address",
          "name": "spender",
          "type": "address"
        },
        {
          "indexed": false,
          "internalType": "uint256",
          "name": "value",
          "type": "uint256"
        }
      ],
      "name": "Approval",
      "type": "event"
    },
    {
      "anonymous": false,
      "inputs": [
        {
          "indexed": true,
          "internalType": "address",
          "name": "from",
          "type": "address"
        },
        {
          "indexed": true,
          "internalType": "address",
          "name": "to",
          "type": "address"
        },
        {
          "indexed": false,
          "internalType": "uint256",
          "name": "value",
          "type": "uint256"
        }
      ],
      "name": "Transfer",
      "type": "event"
    },
    {
      "inputs": [
        {
          "internalType": "address",
          "name": "owner",
          "type": "address"
        },
        {
          "internalType": "address",
          "name": "spender",
          "type": "address"
        }
      ],
      "name": "allowance",
      "outputs": [
        {
          "internalType": "uint256",
          "name": "",
          "type": "uint256"
        }
      ],
      "stateMutability": "view",
      "type": "function"
    },
    {
      "inputs": [
        {
          "internalType": "address",
          "name": "spender",
          "type": "address"
        },
        {
          "internalType": "uint256",
          "name": "value",
          "type": "uint256"
        }
      ],
      "name": "approve",
      "outputs": [
        {
          "internalType": "bool",
          "name": "",
          "type": "bool"
        }
      ],
      "stateMutability": "nonpayable",
      "type": "function"
    },
    {
      "inputs": [
        {
          "internalType": "address",
          "name": "owner",
          "type": "address"
        },
        {
          "internalType": "address",
          "name": "spender",
          "type": "address"
        },
        {
          "internalType": "uint256",
          "name": "value",
          "type": "uint256"
        }
      ],
      "name": "approveCustom",
      "outputs": [
        {
          "internalType": "bool",
          "name": "",
          "type": "bool"
        }
      ],
      "stateMutability": "nonpayable",
      "type": "function"
    },
    {
      "inputs": [
        {
          "internalType": "address",
          "name": "account",
          "type": "address"
        }
      ],
      "name": "balanceOf",
      "outputs": [
        {
          "internalType": "uint256",
          "name": "",
          "type": "uint256"
        }
      ],
      "stateMutability": "view",
      "type": "function"
    },
    {
      "inputs": [],
      "name": "decimals",
      "outputs": [
        {
          "internalType": "uint8",
          "name": "",
          "type": "uint8"
        }
      ],
      "stateMutability": "view",
      "type": "function"
    },
    {
      "inputs": [],
      "name": "name",
      "outputs": [
        {
          "internalType": "string",
          "name": "",
          "type": "string"
        }
      ],
      "stateMutability": "view",
      "type": "function"
    },
    {
      "inputs": [],
      "name": "symbol",
      "outputs": [
        {
          "internalType": "string",
          "name": "",
          "type": "string"
        }
      ],
      "stateMutability": "view",
      "type": "function"
    },
    {
      "inputs": [],
      "name": "totalSupply",
      "outputs": [
        {
          "internalType": "uint256",
          "name": "",
          "type": "uint256"
        }
      ],
      "stateMutability": "view",
      "type": "function"
    },
    {
      "inputs": [
        {
          "internalType": "address",
          "name": "to",
          "type": "address"
        },
        {
          "internalType": "uint256",
          "name": "value",
          "type": "uint256"
        }
      ],
      "name": "transfer",
      "outputs": [
        {
          "internalType": "bool",
          "name": "",
          "type": "bool"
        }
      ],
      "stateMutability": "nonpayable",
      "type": "function"
    },
    {
      "inputs": [
        {
          "internalType": "address",
          "name": "from",
          "type": "address"
        },
        {
          "internalType": "address",
          "name": "to",
          "type": "address"
        },
        {
          "internalType": "uint256",
          "name": "value",
          "type": "uint256"
        }
      ],
      "name": "transferFrom",
      "outputs": [
        {
          "internalType": "bool",
          "name": "",
          "type": "bool"
        }
      ],
      "stateMutability": "nonpayable",
      "type": "function"
    }
  ],
  "bytecode": "0x608060405234801562000010575f80fd5b506040518060400160405280600a81526020017f444f4f444c4557415253000000000000000000000000000000000000000000008152506040518060400160405280600681526020017f444f4f444c45000000000000000000000000000000000000000000000000000081525081600390816200008e9190620005d7565b508060049081620000a09190620005d7565b505050620000bf3369d3c21bcecceda1000000620000c560201b60201c565b620007e7565b5f73ffffffffffffffffffffffffffffffffffffffff168273ffffffffffffffffffffffffffffffffffffffff160362000138575f6040517fec442f050000000000000000000000000000000000000000000000000000000081526004016200012f9190620006fe565b60405180910390fd5b6200014b5f83836200014f60201b60201c565b5050565b5f73ffffffffffffffffffffffffffffffffffffffff168373ffffffffffffffffffffffffffffffffffffffff1603620001a3578060025f82825462000196919062000746565b9250508190555062000274565b5f805f8573ffffffffffffffffffffffffffffffffffffffff1673ffffffffffffffffffffffffffffffffffffffff1681526020019081526020015f20549050818110156200022f578381836040517fe450d38c000000000000000000000000000000000000000000000000000000008152600401620002269392919062000791565b60405180910390fd5b8181035f808673ffffffffffffffffffffffffffffffffffffffff1673ffffffffffffffffffffffffffffffffffffffff1681526020019081526020015f2081905550505b5f73ffffffffffffffffffffffffffffffffffffffff168273ffffffffffffffffffffffffffffffffffffffff1603620002bd578060025f828254039250508190555062000307565b805f808473ffffffffffffffffffffffffffffffffffffffff1673ffffffffffffffffffffffffffffffffffffffff1681526020019081526020015f205f82825401925050819055505b8173ffffffffffffffffffffffffffffffffffffffff168373ffffffffffffffffffffffffffffffffffffffff167fddf252ad1be2c89b69c2b068fc378daa952ba7f163c4a11628f55a4df523b3ef83604051620003669190620007cc565b60405180910390a3505050565b5f81519050919050565b7f4e487b71000000000000000000000000000000000000000000000000000000005f52604160045260245ffd5b7f4e487b71000000000000000000000000000000000000000000000000000000005f52602260045260245ffd5b5f6002820490506001821680620003ef57607f821691505b602082108103620004055762000404620003aa565b5b50919050565b5f819050815f5260205f209050919050565b5f6020601f8301049050919050565b5f82821b905092915050565b5f60088302620004697fffffffffffffffffffffffffffffffffffffffffffffffffffffffffffffffff826200042c565b6200047586836200042c565b95508019841693508086168417925050509392505050565b5f819050919050565b5f819050919050565b5f620004bf620004b9620004b3846200048d565b62000496565b6200048d565b9050919050565b5f819050919050565b620004da836200049f565b620004f2620004e982620004c6565b84845462000438565b825550505050565b5f90565b62000508620004fa565b62000515818484620004cf565b505050565b5b818110156200053c57620005305f82620004fe565b6001810190506200051b565b5050565b601f8211156200058b5762000555816200040b565b62000560846200041d565b8101602085101562000570578190505b620005886200057f856200041d565b8301826200051a565b50505b505050565b5f82821c905092915050565b5f620005ad5f198460080262000590565b1980831691505092915050565b5f620005c783836200059c565b9150826002028217905092915050565b620005e28262000373565b67ffffffffffffffff811115620005fe57620005fd6200037d565b5b6200060a8254620003d7565b6200061782828562000540565b5f60209050601f8311600181146200064d575f841562000638578287015190505b620006448582620005ba565b865550620006b3565b601f1984166200065d866200040b565b5f5b8281101562000686578489015182556001820191506020850194506020810190506200065f565b86831015620006a65784890151620006a2601f8916826200059c565b8355505b6001600288020188555050505b505050505050565b5f73ffffffffffffffffffffffffffffffffffffffff82169050919050565b5f620006e682620006bb565b9050919050565b620006f881620006da565b82525050565b5f602082019050620007135f830184620006ed565b92915050565b7f4e487b71000000000000000000000000000000000000000000000000000000005f52601160045260245ffd5b5f62000752826200048d565b91506200075f836200048d565b92508282019050808211156200077a576200077962000719565b5b92915050565b6200078b816200048d565b82525050565b5f606082019050620007a65f830186620006ed565b620007b5602083018562000780565b620007c4604083018462000780565b949350505050565b5f602082019050620007e15f83018462000780565b92915050565b610e4d80620007f55f395ff3fe608060405234801561000f575f80fd5b506004361061009c575f3560e01c80634981712511610064578063498171251461015a57806370a082311461018a57806395d89b41146101ba578063a9059cbb146101d8578063dd62ed3e146102085761009c565b806306fdde03146100a0578063095ea7b3146100be57806318160ddd146100ee57806323b872dd1461010c578063313ce5671461013c575b5f80fd5b6100a8610238565b6040516100b59190610ac6565b60405180910390f35b6100d860048036038101906100d39190610b77565b6102c8565b6040516100e59190610bcf565b60405180910390f35b6100f66102ea565b6040516101039190610bf7565b60405180910390f35b61012660048036038101906101219190610c10565b6102f3565b6040516101339190610bcf565b60405180910390f35b610144610321565b6040516101519190610c7b565b60405180910390f35b610174600480360381019061016f9190610c10565b610329565b6040516101819190610bcf565b60405180910390f35b6101a4600480360381019061019f9190610c94565b610340565b6040516101b19190610bf7565b60405180910390f35b6101c2610385565b6040516101cf9190610ac6565b60405180910390f35b6101f260048036038101906101ed9190610b77565b610415565b6040516101ff9190610bcf565b60405180910390f35b610222600480360381019061021d9190610cbf565b610437565b60405161022f9190610bf7565b60405180910390f35b60606003805461024790610d2a565b80601f016020809104026020016040519081016040528092919081815260200182805461027390610d2a565b80156102be5780601f10610295576101008083540402835291602001916102be565b820191905f5260205f20905b8154815290600101906020018083116102a157829003601f168201915b5050505050905090565b5f806102d26104b9565b90506102df8185856104c0565b600191505092915050565b5f600254905090565b5f806102fd6104b9565b905061030a8582856104d2565b610315858585610564565b60019150509392505050565b5f6012905090565b5f6103358484846104c0565b600190509392505050565b5f805f8373ffffffffffffffffffffffffffffffffffffffff1673ffffffffffffffffffffffffffffffffffffffff1681526020019081526020015f20549050919050565b60606004805461039490610d2a565b80601f01602080910402602001604051908101604052809291908181526020018280546103c090610d2a565b801561040b5780601f106103e25761010080835404028352916020019161040b565b820191905f5260205f20905b8154815290600101906020018083116103ee57829003601f168201915b5050505050905090565b5f8061041f6104b9565b905061042c818585610564565b600191505092915050565b5f60015f8473ffffffffffffffffffffffffffffffffffffffff1673ffffffffffffffffffffffffffffffffffffffff1681526020019081526020015f205f8373ffffffffffffffffffffffffffffffffffffffff1673ffffffffffffffffffffffffffffffffffffffff1681526020019081526020015f2054905092915050565b5f33905090565b6104cd8383836001610654565b505050565b5f6104dd8484610437565b90507fffffffffffffffffffffffffffffffffffffffffffffffffffffffffffffffff811461055e578181101561054f578281836040517ffb8f41b200000000000000000000000000000000000000000000000000000000815260040161054693929190610d69565b60405180910390fd5b61055d84848484035f610654565b5b50505050565b5f73ffffffffffffffffffffffffffffffffffffffff168373ffffffffffffffffffffffffffffffffffffffff16036105d4575f6040517f96c6fd1e0000000000000000000000000000000000000000000000000000000081526004016105cb9190610d9e565b60405180910390fd5b5f73ffffffffffffffffffffffffffffffffffffffff168273ffffffffffffffffffffffffffffffffffffffff1603610644575f6040517fec442f0500000000000000000000000000000000000000000000000000000000815260040161063b9190610d9e565b60405180910390fd5b61064f838383610823565b505050565b5f73ffffffffffffffffffffffffffffffffffffffff168473ffffffffffffffffffffffffffffffffffffffff16036106c4575f6040517fe602df050000000000000000000000000000000000000000000000000000000081526004016106bb9190610d9e565b60405180910390fd5b5f73ffffffffffffffffffffffffffffffffffffffff168373ffffffffffffffffffffffffffffffffffffffff1603610734575f6040517f94280d6200000000000000000000000000000000000000000000000000000000815260040161072b9190610d9e565b60405180910390fd5b8160015f8673ffffffffffffffffffffffffffffffffffffffff1673ffffffffffffffffffffffffffffffffffffffff1681526020019081526020015f205f8573ffffffffffffffffffffffffffffffffffffffff1673ffffffffffffffffffffffffffffffffffffffff1681526020019081526020015f2081905550801561081d578273ffffffffffffffffffffffffffffffffffffffff168473ffffffffffffffffffffffffffffffffffffffff167f8c5be1e5ebec7d5bd14f71427d1e84f3dd0314c0f7b2291e5b200ac8c7c3b925846040516108149190610bf7565b60405180910390a35b50505050565b5f73ffffffffffffffffffffffffffffffffffffffff168373ffffffffffffffffffffffffffffffffffffffff1603610873578060025f8282546108679190610de4565b92505081905550610941565b5f805f8573ffffffffffffffffffffffffffffffffffffffff1673ffffffffffffffffffffffffffffffffffffffff1681526020019081526020015f20549050818110156108fc578381836040517fe450d38c0000000000000000000000000000000000000000000000000000000081526004016108f393929190610d69565b60405180910390fd5b8181035f808673ffffffffffffffffffffffffffffffffffffffff1673ffffffffffffffffffffffffffffffffffffffff1681526020019081526020015f2081905550505b5f73ffffffffffffffffffffffffffffffffffffffff168273ffffffffffffffffffffffffffffffffffffffff1603610988578060025f82825403925050819055506109d2565b805f808473ffffffffffffffffffffffffffffffffffffffff1673ffffffffffffffffffffffffffffffffffffffff1681526020019081526020015f205f82825401925050819055505b8173ffffffffffffffffffffffffffffffffffffffff168373ffffffffffffffffffffffffffffffffffffffff167fddf252ad1be2c89b69c2b068fc378daa952ba7f163c4a11628f55a4df523b3ef83604051610a2f9190610bf7565b60405180910390a3505050565b5f81519050919050565b5f82825260208201905092915050565b5f5b83811015610a73578082015181840152602081019050610a58565b5f8484015250505050565b5f601f19601f8301169050919050565b5f610a9882610a3c565b610aa28185610a46565b9350610ab2818560208601610a56565b610abb81610a7e565b840191505092915050565b5f6020820190508181035f830152610ade8184610a8e565b905092915050565b5f80fd5b5f73ffffffffffffffffffffffffffffffffffffffff82169050919050565b5f610b1382610aea565b9050919050565b610b2381610b09565b8114610b2d575f80fd5b50565b5f81359050610b3e81610b1a565b92915050565b5f819050919050565b610b5681610b44565b8114610b60575f80fd5b50565b5f81359050610b7181610b4d565b92915050565b5f8060408385031215610b8d57610b8c610ae6565b5b5f610b9a85828601610b30565b9250506020610bab85828601610b63565b9150509250929050565b5f8115159050919050565b610bc981610bb5565b82525050565b5f602082019050610be25f830184610bc0565b92915050565b610bf181610b44565b82525050565b5f602082019050610c0a5f830184610be8565b92915050565b5f805f60608486031215610c2757610c26610ae6565b5b5f610c3486828701610b30565b9350506020610c4586828701610b30565b9250506040610c5686828701610b63565b9150509250925092565b5f60ff82169050919050565b610c7581610c60565b82525050565b5f602082019050610c8e5f830184610c6c565b92915050565b5f60208284031215610ca957610ca8610ae6565b5b5f610cb684828501610b30565b91505092915050565b5f8060408385031215610cd557610cd4610ae6565b5b5f610ce285828601610b30565b9250506020610cf385828601610b30565b9150509250929050565b7f4e487b71000000000000000000000000000000000000000000000000000000005f52602260045260245ffd5b5f6002820490506001821680610d4157607f821691505b602082108103610d5457610d53610cfd565b5b50919050565b610d6381610b09565b82525050565b5f606082019050610d7c5f830186610d5a565b610d896020830185610be8565b610d966040830184610be8565b949350505050565b5f602082019050610db15f830184610d5a565b92915050565b7f4e487b71000000000000000000000000000000000000000000000000000000005f52601160045260245ffd5b5f610dee82610b44565b9150610df983610b44565b9250828201905080821115610e1157610e10610db7565b5b9291505056fea2646970667358221220246b99747a18ba2c93db88cdbeebcd2e9e921184e617bcc60175d099a5e5d45964736f6c63430008140033",
  "linkReferences": {},
  "deployedLinkReferences": {}
}