{
  "_format": "hh-sol-artifact-1",
  "contractName": "EthindiaContract",
  "sourceName": "contracts/Maincontract.sol",
  "abi": [
    {
      "inputs": [],
      "stateMutability": "nonpayable",
      "type": "constructor"
    },
    {
      "anonymous": false,
      "inputs": [
        {
          "indexed": false,
          "internalType": "string",
          "name": "RoomName",
          "type": "string"
        },
        {
          "indexed": false,
          "internalType": "address",
          "name": "WalletAddress",
          "type": "address"
        },
        {
          "indexed": false,
          "internalType": "uint256",
          "name": "playersCount",
          "type": "uint256"
        }
      ],
      "name": "createdRoomEvent",
      "type": "event"
    },
    {
      "anonymous": false,
      "inputs": [
        {
          "indexed": false,
          "internalType": "address",
          "name": "tokenStakerAddress",
          "type": "address"
        },
        {
          "indexed": false,
          "internalType": "uint256",
          "name": "amount",
          "type": "uint256"
        }
      ],
      "name": "stakedTokens",
      "type": "event"
    },
    {
      "inputs": [],
      "name": "contractBalanceofscribbleweb3token",
      "outputs": [
        {
          "internalType": "uint256",
          "name": "",
          "type": "uint256"
        }
      ],
      "stateMutability": "view",
      "type": "function"
    },
    {
      "inputs": [],
      "name": "contractDeployer",
      "outputs": [
        {
          "internalType": "address",
          "name": "",
          "type": "address"
        }
      ],
      "stateMutability": "view",
      "type": "function"
    },
    {
      "inputs": [
        {
          "internalType": "string",
          "name": "_createdRoomName",
          "type": "string"
        },
        {
          "internalType": "address",
          "name": "_roomCreatorAddress",
          "type": "address"
        },
        {
          "internalType": "uint256",
          "name": "_noofPlayers",
          "type": "uint256"
        }
      ],
      "name": "createRoom",
      "outputs": [],
      "stateMutability": "payable",
      "type": "function"
    },
    {
      "inputs": [
        {
          "internalType": "address",
          "name": "_roomcreator",
          "type": "address"
        }
      ],
      "name": "giveParticluarroomName",
      "outputs": [
        {
          "internalType": "string",
          "name": "",
          "type": "string"
        }
      ],
      "stateMutability": "view",
      "type": "function"
    },
    {
      "inputs": [
        {
          "internalType": "address",
          "name": "_roomcreator",
          "type": "address"
        }
      ],
      "name": "giveParticularCreatorAddress",
      "outputs": [
        {
          "internalType": "address",
          "name": "",
          "type": "address"
        }
      ],
      "stateMutability": "view",
      "type": "function"
    },
    {
      "inputs": [
        {
          "internalType": "address",
          "name": "_roomcreator",
          "type": "address"
        }
      ],
      "name": "giveParticularNoOfPlayers",
      "outputs": [
        {
          "internalType": "uint256",
          "name": "",
          "type": "uint256"
        }
      ],
      "stateMutability": "view",
      "type": "function"
    },
    {
      "inputs": [
        {
          "internalType": "address",
          "name": "",
          "type": "address"
        }
      ],
      "name": "oneCreatedRoom",
      "outputs": [
        {
          "internalType": "string",
          "name": "roomName",
          "type": "string"
        },
        {
          "internalType": "address",
          "name": "creatorAddress",
          "type": "address"
        },
        {
          "internalType": "uint256",
          "name": "noOfPlayers",
          "type": "uint256"
        }
      ],
      "stateMutability": "view",
      "type": "function"
    },
    {
      "inputs": [],
      "name": "scribbleweb3token",
      "outputs": [
        {
          "internalType": "contract IERC20",
          "name": "",
          "type": "address"
        }
      ],
      "stateMutability": "view",
      "type": "function"
    },
    {
      "inputs": [],
      "name": "scribbleweb3tokenAddress",
      "outputs": [
        {
          "internalType": "address",
          "name": "",
          "type": "address"
        }
      ],
      "stateMutability": "view",
      "type": "function"
    },
    {
      "inputs": [
        {
          "internalType": "uint256",
          "name": "_amount",
          "type": "uint256"
        }
      ],
      "name": "stakeTokensInRoom",
      "outputs": [],
      "stateMutability": "payable",
      "type": "function"
    },
    {
      "inputs": [
        {
          "internalType": "address",
          "name": "_WinnerAddress",
          "type": "address"
        }
      ],
      "name": "transferAllFundsToContract",
      "outputs": [],
      "stateMutability": "payable",
      "type": "function"
    },
    {
      "stateMutability": "payable",
      "type": "receive"
    }
  ],
  "bytecode": "0x60806040527307fcbd2412e0ffd9eae62dabcc86d790f36161d560015f6101000a81548173ffffffffffffffffffffffffffffffffffffffff021916908373ffffffffffffffffffffffffffffffffffffffff160217905550348015610063575f80fd5b50335f806101000a81548173ffffffffffffffffffffffffffffffffffffffff021916908373ffffffffffffffffffffffffffffffffffffffff16021790555060015f9054906101000a900473ffffffffffffffffffffffffffffffffffffffff1660025f6101000a81548173ffffffffffffffffffffffffffffffffffffffff021916908373ffffffffffffffffffffffffffffffffffffffff16021790555061107c806101115f395ff3fe60806040526004361061009f575f3560e01c806368e6af721161006357806368e6af72146101a657806371392337146101e2578063789d72e91461020c578063a24bfc6e14610228578063a4267fd914610252578063c733222e1461026e576100a6565b80632973494c146100aa57806341698eba146100e6578063430d90f014610102578063576c90501461013e578063640eece31461017c576100a6565b366100a657005b5f80fd5b3480156100b5575f80fd5b506100d060048036038101906100cb91906108c0565b610298565b6040516100dd9190610903565b60405180910390f35b61010060048036038101906100fb9190610a82565b6102e1565b005b34801561010d575f80fd5b50610128600480360381019061012391906108c0565b6103be565b6040516101359190610b68565b60405180910390f35b348015610149575f80fd5b50610164600480360381019061015f91906108c0565b61048d565b60405161017393929190610b97565b60405180910390f35b348015610187575f80fd5b50610190610558565b60405161019d9190610903565b60405180910390f35b3480156101b1575f80fd5b506101cc60048036038101906101c791906108c0565b6105f7565b6040516101d99190610bd3565b60405180910390f35b3480156101ed575f80fd5b506101f661065f565b6040516102039190610bd3565b60405180910390f35b610226600480360381019061022191906108c0565b610684565b005b348015610233575f80fd5b5061023c610732565b6040516102499190610bd3565b60405180910390f35b61026c60048036038101906102679190610bec565b610755565b005b348015610279575f80fd5b50610282610830565b60405161028f9190610c72565b60405180910390f35b5f60035f8373ffffffffffffffffffffffffffffffffffffffff1673ffffffffffffffffffffffffffffffffffffffff1681526020019081526020015f20600201549050919050565b5f60035f3373ffffffffffffffffffffffffffffffffffffffff1673ffffffffffffffffffffffffffffffffffffffff1681526020019081526020015f20905083815f0190816103319190610e7c565b5082816001015f6101000a81548173ffffffffffffffffffffffffffffffffffffffff021916908373ffffffffffffffffffffffffffffffffffffffff1602179055508181600201819055507fffb3f05694ed87b4d91021a7d3d9954b2b4145d5ccce208292b85f6cc8f260118484846040516103b093929190610b97565b60405180910390a150505050565b606060035f8373ffffffffffffffffffffffffffffffffffffffff1673ffffffffffffffffffffffffffffffffffffffff1681526020019081526020015f205f01805461040a90610cb8565b80601f016020809104026020016040519081016040528092919081815260200182805461043690610cb8565b80156104815780601f1061045857610100808354040283529160200191610481565b820191905f5260205f20905b81548152906001019060200180831161046457829003601f168201915b50505050509050919050565b6003602052805f5260405f205f91509050805f0180546104ac90610cb8565b80601f01602080910402602001604051908101604052809291908181526020018280546104d890610cb8565b80156105235780601f106104fa57610100808354040283529160200191610523565b820191905f5260205f20905b81548152906001019060200180831161050657829003601f168201915b505050505090806001015f9054906101000a900473ffffffffffffffffffffffffffffffffffffffff16908060020154905083565b5f60025f9054906101000a900473ffffffffffffffffffffffffffffffffffffffff1673ffffffffffffffffffffffffffffffffffffffff166370a08231306040518263ffffffff1660e01b81526004016105b39190610bd3565b602060405180830381865afa1580156105ce573d5f803e3d5ffd5b505050506040513d601f19601f820116820180604052508101906105f29190610f5f565b905090565b5f60035f8373ffffffffffffffffffffffffffffffffffffffff1673ffffffffffffffffffffffffffffffffffffffff1681526020019081526020015f206001015f9054906101000a900473ffffffffffffffffffffffffffffffffffffffff169050919050565b60015f9054906101000a900473ffffffffffffffffffffffffffffffffffffffff1681565b5f61068d610558565b905060025f9054906101000a900473ffffffffffffffffffffffffffffffffffffffff1673ffffffffffffffffffffffffffffffffffffffff166323b872dd3084846040518463ffffffff1660e01b81526004016106ed93929190610f8a565b6020604051808303815f875af1158015610709573d5f803e3d5ffd5b505050506040513d601f19601f8201168201806040525081019061072d9190610ff4565b505050565b5f8054906101000a900473ffffffffffffffffffffffffffffffffffffffff1681565b60025f9054906101000a900473ffffffffffffffffffffffffffffffffffffffff1673ffffffffffffffffffffffffffffffffffffffff166323b872dd3330846040518463ffffffff1660e01b81526004016107b393929190610f8a565b6020604051808303815f875af11580156107cf573d5f803e3d5ffd5b505050506040513d601f19601f820116820180604052508101906107f39190610ff4565b507fe81c71275584ece41bbcc91481eb0f9fdda4355fae331fedb46d6b9644056a64338260405161082592919061101f565b60405180910390a150565b60025f9054906101000a900473ffffffffffffffffffffffffffffffffffffffff1681565b5f604051905090565b5f80fd5b5f80fd5b5f73ffffffffffffffffffffffffffffffffffffffff82169050919050565b5f61088f82610866565b9050919050565b61089f81610885565b81146108a9575f80fd5b50565b5f813590506108ba81610896565b92915050565b5f602082840312156108d5576108d461085e565b5b5f6108e2848285016108ac565b91505092915050565b5f819050919050565b6108fd816108eb565b82525050565b5f6020820190506109165f8301846108f4565b92915050565b5f80fd5b5f80fd5b5f601f19601f8301169050919050565b7f4e487b71000000000000000000000000000000000000000000000000000000005f52604160045260245ffd5b61096a82610924565b810181811067ffffffffffffffff8211171561098957610988610934565b5b80604052505050565b5f61099b610855565b90506109a78282610961565b919050565b5f67ffffffffffffffff8211156109c6576109c5610934565b5b6109cf82610924565b9050602081019050919050565b828183375f83830152505050565b5f6109fc6109f7846109ac565b610992565b905082815260208101848484011115610a1857610a17610920565b5b610a238482856109dc565b509392505050565b5f82601f830112610a3f57610a3e61091c565b5b8135610a4f8482602086016109ea565b91505092915050565b610a61816108eb565b8114610a6b575f80fd5b50565b5f81359050610a7c81610a58565b92915050565b5f805f60608486031215610a9957610a9861085e565b5b5f84013567ffffffffffffffff811115610ab657610ab5610862565b5b610ac286828701610a2b565b9350506020610ad3868287016108ac565b9250506040610ae486828701610a6e565b9150509250925092565b5f81519050919050565b5f82825260208201905092915050565b5f5b83811015610b25578082015181840152602081019050610b0a565b5f8484015250505050565b5f610b3a82610aee565b610b448185610af8565b9350610b54818560208601610b08565b610b5d81610924565b840191505092915050565b5f6020820190508181035f830152610b808184610b30565b905092915050565b610b9181610885565b82525050565b5f6060820190508181035f830152610baf8186610b30565b9050610bbe6020830185610b88565b610bcb60408301846108f4565b949350505050565b5f602082019050610be65f830184610b88565b92915050565b5f60208284031215610c0157610c0061085e565b5b5f610c0e84828501610a6e565b91505092915050565b5f819050919050565b5f610c3a610c35610c3084610866565b610c17565b610866565b9050919050565b5f610c4b82610c20565b9050919050565b5f610c5c82610c41565b9050919050565b610c6c81610c52565b82525050565b5f602082019050610c855f830184610c63565b92915050565b7f4e487b71000000000000000000000000000000000000000000000000000000005f52602260045260245ffd5b5f6002820490506001821680610ccf57607f821691505b602082108103610ce257610ce1610c8b565b5b50919050565b5f819050815f5260205f209050919050565b5f6020601f8301049050919050565b5f82821b905092915050565b5f60088302610d447fffffffffffffffffffffffffffffffffffffffffffffffffffffffffffffffff82610d09565b610d4e8683610d09565b95508019841693508086168417925050509392505050565b5f610d80610d7b610d76846108eb565b610c17565b6108eb565b9050919050565b5f819050919050565b610d9983610d66565b610dad610da582610d87565b848454610d15565b825550505050565b5f90565b610dc1610db5565b610dcc818484610d90565b505050565b5b81811015610def57610de45f82610db9565b600181019050610dd2565b5050565b601f821115610e3457610e0581610ce8565b610e0e84610cfa565b81016020851015610e1d578190505b610e31610e2985610cfa565b830182610dd1565b50505b505050565b5f82821c905092915050565b5f610e545f1984600802610e39565b1980831691505092915050565b5f610e6c8383610e45565b9150826002028217905092915050565b610e8582610aee565b67ffffffffffffffff811115610e9e57610e9d610934565b5b610ea88254610cb8565b610eb3828285610df3565b5f60209050601f831160018114610ee4575f8415610ed2578287015190505b610edc8582610e61565b865550610f43565b601f198416610ef286610ce8565b5f5b82811015610f1957848901518255600182019150602085019450602081019050610ef4565b86831015610f365784890151610f32601f891682610e45565b8355505b6001600288020188555050505b505050505050565b5f81519050610f5981610a58565b92915050565b5f60208284031215610f7457610f7361085e565b5b5f610f8184828501610f4b565b91505092915050565b5f606082019050610f9d5f830186610b88565b610faa6020830185610b88565b610fb760408301846108f4565b949350505050565b5f8115159050919050565b610fd381610fbf565b8114610fdd575f80fd5b50565b5f81519050610fee81610fca565b92915050565b5f602082840312156110095761100861085e565b5b5f61101684828501610fe0565b91505092915050565b5f6040820190506110325f830185610b88565b61103f60208301846108f4565b939250505056fea264697066735822122089c7bf9ff21f32c522b3d59b3aa8eea27abd3251fdb5afd069d16a0fbdd1c1e764736f6c63430008140033",
  "linkReferences": {},
  "deployedLinkReferences": {}
}